{
    "_format": "hh-sol-artifact-1",
    "contractName": "SecureWallet",
    "sourceName": "contracts/secureWallet.sol",
    "abi": [
        {
            "inputs": [
                {
                    "internalType": "address",
                    "name": "_signer",
                    "type": "address"
                }
            ],
            "stateMutability": "nonpayable",
            "type": "constructor"
        },
        {
            "anonymous": false,
            "inputs": [
                {
                    "indexed": true,
                    "internalType": "address",
                    "name": "user",
                    "type": "address"
                },
                {
                    "indexed": false,
                    "internalType": "uint256",
                    "name": "amount",
                    "type": "uint256"
                }
            ],
            "name": "Deposit",
            "type": "event"
        },
        {
            "anonymous": false,
            "inputs": [
                {
                    "indexed": true,
                    "internalType": "address",
                    "name": "user",
                    "type": "address"
                },
                {
                    "indexed": false,
                    "internalType": "uint256",
                    "name": "amount",
                    "type": "uint256"
                }
            ],
            "name": "Withdraw",
            "type": "event"
        },
        {
            "inputs": [
                {
                    "internalType": "address",
                    "name": "_signer",
                    "type": "address"
                }
            ],
            "name": "changeSignerAccount",
            "outputs": [],
            "stateMutability": "nonpayable",
            "type": "function"
        },
        {
            "inputs": [],
            "name": "depositFunds",
            "outputs": [],
            "stateMutability": "payable",
            "type": "function"
        },
        {
            "inputs": [
                {
                    "internalType": "bytes32",
                    "name": "_message",
                    "type": "bytes32"
                }
            ],
            "name": "getMessageHash",
            "outputs": [
                {
                    "internalType": "bytes32",
                    "name": "",
                    "type": "bytes32"
                }
            ],
            "stateMutability": "pure",
            "type": "function"
        },
        {
            "inputs": [],
            "name": "getNonce",
            "outputs": [
                {
                    "internalType": "uint256",
                    "name": "",
                    "type": "uint256"
                }
            ],
            "stateMutability": "view",
            "type": "function"
        },
        {
            "inputs": [],
            "name": "getTotalBalance",
            "outputs": [
                {
                    "internalType": "uint256",
                    "name": "",
                    "type": "uint256"
                }
            ],
            "stateMutability": "view",
            "type": "function"
        },
        {
            "inputs": [
                {
                    "internalType": "bytes32",
                    "name": "_getSignedMessageHash",
                    "type": "bytes32"
                },
                {
                    "internalType": "bytes",
                    "name": "_sig",
                    "type": "bytes"
                }
            ],
            "name": "recover",
            "outputs": [
                {
                    "internalType": "address",
                    "name": "",
                    "type": "address"
                }
            ],
            "stateMutability": "pure",
            "type": "function"
        },
        {
            "inputs": [
                {
                    "internalType": "address",
                    "name": "_signer",
                    "type": "address"
                },
                {
                    "internalType": "bytes32",
                    "name": "_message",
                    "type": "bytes32"
                },
                {
                    "internalType": "bytes",
                    "name": "_sig",
                    "type": "bytes"
                }
            ],
            "name": "verify",
            "outputs": [
                {
                    "internalType": "bool",
                    "name": "",
                    "type": "bool"
                }
            ],
            "stateMutability": "pure",
            "type": "function"
        },
        {
            "inputs": [
                {
                    "internalType": "address",
                    "name": "_user",
                    "type": "address"
                },
                {
                    "internalType": "uint256",
                    "name": "_amount",
                    "type": "uint256"
                },
                {
                    "internalType": "bytes",
                    "name": "_signature",
                    "type": "bytes"
                }
            ],
            "name": "withdrawFunds",
            "outputs": [],
            "stateMutability": "payable",
            "type": "function"
        },
        {
            "stateMutability": "payable",
            "type": "receive"
        }
    ],
    "bytecode": "0x608060405234801561001057600080fd5b5060405161091738038061091783398101604081905261002f91610062565b60018054336001600160a01b031991821617909155600280549091166001600160a01b0392909216919091179055610092565b60006020828403121561007457600080fd5b81516001600160a01b038116811461008b57600080fd5b9392505050565b610876806100a16000396000f3fe60806040526004361061007f5760003560e01c8063d087d2881161004e578063d087d2881461015c578063e2c41dbc14610171578063e4c3094e1461017b578063f31826381461018e57600080fd5b806312b583491461008b57806319045a25146100ad5780631a86b550146100e5578063399b77da1461011557600080fd5b3661008657005b600080fd5b34801561009757600080fd5b50475b6040519081526020015b60405180910390f35b3480156100b957600080fd5b506100cd6100c83660046106c4565b6101ae565b6040516001600160a01b0390911681526020016100a4565b3480156100f157600080fd5b50610105610100366004610727565b61022d565b60405190151581526020016100a4565b34801561012157600080fd5b5061009a61013036600461077e565b604080516020808201939093526000818301528151808203830181526060909101909152805191012090565b34801561016857600080fd5b5060005461009a565b6101796102da565b005b610179610189366004610797565b610366565b34801561019a57600080fd5b506101796101a936600461081e565b610531565b6000806000806101bd856105ad565b6040805160008152602081018083528b905260ff8316918101919091526060810184905260808101839052929550909350915060019060a0016020604051602081039080840390855afa158015610218573d6000803e3d6000fd5b5050604051601f190151979650505050505050565b60408051602080820185905260008284018190528351808403850181526060909301909352815191012060006102b0826040517f19457468657265756d205369676e6564204d6573736167653a0a3332000000006020820152603c8101829052600090605c01604051602081830303815290604052805190602001209050919050565b9050856001600160a01b03166102c682866101ae565b6001600160a01b0316149695505050505050565b6000341161032f5760405162461bcd60e51b815260206004820152601a60248201527f4465706f7369746520616d6f756e742063616e2774206265203000000000000060448201526064015b60405180910390fd5b60405134815233907fe1fffcc4923d04b559f4d29a8bfc6cda04eb5b0d3c460751c2402c5c5cc9109c9060200160405180910390a2565b600083116103cb5760405162461bcd60e51b815260206004820152602c60248201527f7769746864726177616c20616d6f756e742063616e2774206265206d6f72652060448201526b7468616e2062616c616e636560a01b6064820152608401610326565b600080546040516001600160a01b038716602482015260448101869052606481019190915260840160408051601f19818403018152918152602080830180516001600160e01b0316637aa6012360e11b17815292519092206002548251601f8701859004850281018501909352858352909350610470926001600160a01b03909116918491879087908190840183828082843760009201919091525061022d92505050565b6104b05760405162461bcd60e51b815260206004820152601160248201527039b4b3b730ba3ab932903330b4b632b21760791b6044820152606401610326565b6040516001600160a01b0386169085156108fc029086906000818181858888f193505050501580156104e6573d6000803e3d6000fd5b50846001600160a01b03167f884edad9ce6fa2440d8a54cc123490eb96d2768479d49ff9c7366125a94243648560405161052291815260200190565b60405180910390a25050505050565b6001546001600160a01b0316331461058b5760405162461bcd60e51b815260206004820152601c60248201527f6f6e6c792061646d696e2063616e206368616e6765207369676e6572000000006044820152606401610326565b600280546001600160a01b0319166001600160a01b0392909216919091179055565b600080600083516041146106035760405162461bcd60e51b815260206004820152601860248201527f496e76616c6964207369676e6174757265206c656e67746800000000000000006044820152606401610326565b50505060208101516040820151606090920151909260009190911a90565b634e487b7160e01b600052604160045260246000fd5b600082601f83011261064857600080fd5b813567ffffffffffffffff8082111561066357610663610621565b604051601f8301601f19908116603f0116810190828211818310171561068b5761068b610621565b816040528381528660208588010111156106a457600080fd5b836020870160208301376000602085830101528094505050505092915050565b600080604083850312156106d757600080fd5b82359150602083013567ffffffffffffffff8111156106f557600080fd5b61070185828601610637565b9150509250929050565b80356001600160a01b038116811461072257600080fd5b919050565b60008060006060848603121561073c57600080fd5b6107458461070b565b925060208401359150604084013567ffffffffffffffff81111561076857600080fd5b61077486828701610637565b9150509250925092565b60006020828403121561079057600080fd5b5035919050565b600080600080606085870312156107ad57600080fd5b6107b68561070b565b935060208501359250604085013567ffffffffffffffff808211156107da57600080fd5b818701915087601f8301126107ee57600080fd5b8135818111156107fd57600080fd5b88602082850101111561080f57600080fd5b95989497505060200194505050565b60006020828403121561083057600080fd5b6108398261070b565b939250505056fea26469706673582212201b9c8f65dd4f5202a3bb73ea40a3d1bba4f966c41e0a3b2d32eeb8999ea30b9d64736f6c63430008140033",
    "linkReferences": {},
    "deployedLinkReferences": {}
}